S01B00005472697669616C5F4578616D706C655F44494F2E73726563C8
S11300000C942A000C9447000C9447000C9447006D
S11300100C9447000C9447000C9447000C94470040
S11300200C9447000C9447000C9447000C94470030
S11300300C9447000C9447000C9447000C94470020
S11300400C9447000C9447000C9447000C94470010
S11300500C94470011241FBECFE5D8E0DEBFCDBF0E
S113006010E0A0E6B0E0E4EBF0E002C005900D92F1
S1130070A036B107D9F710E0A0E6B0E001C01D92A8
S1130080A036B107E1F70E9449000C9458000C9483
S11300900000D09A91E08BB389278BBB2FEF39E610
S11300A048E1215030404040E1F700C00000F3CF68
S10700B0F894FFCFEE
S9030000FC
