:100000000C942A000C9447000C9447000C94470071
:100010000C9447000C9447000C9447000C94470044
:100020000C9447000C9447000C9447000C94470034
:100030000C9447000C9447000C9447000C94470024
:100040000C9447000C9447000C9447000C94470014
:100050000C94470011241FBECFE5D8E0DEBFCDBF12
:1000600010E0A0E6B0E0EEE2F5E002C005900D92EF
:10007000A036B107D9F710E0A0E6B0E001C01D92AC
:10008000A036B107E1F70E9463020C9495020C942C
:10009000000040E00E94DD0008950E94A70108953D
:1000A000833409F44AC0843430F4813461F08234FA
:1000B00009F060C025C0823619F1833609F43DC0CD
:1000C000813609F057C0442371F42BB381E090E0EE
:1000D000AC0102C0440F551F6A95E2F7BA01609562
:1000E00062236BBB08952BB381E090E0AC0102C0AA
:1000F000440F551F6A95E2F7BA01622B6BBB089556
:10010000442371F428B381E090E0AC0102C0440FB5
:10011000551F6A95E2F7BA016095622368BB08959E
:1001200028B381E090E0AC0102C0440F551F6A95EE
:10013000E2F7BA01622B68BB0895442371F425B33A
:1001400081E090E0AC0102C0440F551F6A95E2F7D0
:10015000BA016095622365BB089525B381E090E004
:10016000AC0102C0440F551F6A95E2F7BA01622B39
:1001700065BB0895442371F422B381E090E0AC01A3
:1001800002C0440F551F6A95E2F7BA0160956223D9
:1001900062BB089522B381E090E0AC0102C0440F3D
:1001A000551F6A95E2F7BA01622B62BB089590E091
:1001B00070E050E00E9450000895833409F44AC072
:1001C000843430F4813461F0823409F060C025C099
:1001D000823619F1833609F43DC0813609F057C0E3
:1001E000442371F42AB381E090E0AC0102C0440FD3
:1001F000551F6A95E2F7BA01609562236ABB0895BC
:100200002AB381E090E0AC0102C0440F551F6A950B
:10021000E2F7BA01622B6ABB0895442371F427B355
:1002200081E090E0AC0102C0440F551F6A95E2F7EF
:10023000BA016095622367BB089527B381E090E01F
:10024000AC0102C0440F551F6A95E2F7BA01622B58
:1002500067BB0895442371F424B381E090E0AC01BE
:1002600002C0440F551F6A95E2F7BA0160956223F8
:1002700064BB089524B381E090E0AC0102C0440F58
:10028000551F6A95E2F7BA01622B64BB08954423B7
:1002900071F421B381E090E0AC0102C0440F551F1E
:1002A0006A95E2F7BA016095622361BB089521B3B4
:1002B00081E090E0AC0102C0440F551F6A95E2F75F
:1002C000BA01622B61BB0895833439F1843428F478
:1002D000813449F0823471F513C0823689F0833657
:1002E000E1F0813639F52BB381E090E0AC0102C03A
:1002F000440F551F6A95E2F7BA0162276BBB089558
:1003000028B381E090E0AC0102C0440F551F6A950C
:10031000E2F7BA01622768BB089525B381E090E057
:10032000AC0102C0440F551F6A95E2F7BA0162277B
:1003300065BB089522B381E090E0AC0102C0440F98
:10034000551F6A95E2F7BA01622762BB08958334AC
:1003500091F1843430F4813451F0823409F03DC09D
:1003600018C08236B1F0833631F18136B1F529B348
:1003700081E090E0062E02C0880F991F0A94E2F7F0
:1003800030E08223932302C0959587956A95E2F722
:10039000089526B381E090E0062E02C0880F991FD1
:1003A0000A94E2F730E08223932302C09595879563
:1003B0006A95E2F7089523B381E090E0062E02C02B
:1003C000880F991F0A94E2F730E08223932302C03A
:1003D000959587956A95E2F7089520B381E090E0BE
:1003E000062E02C0880F991F0A94E2F730E082239C
:1003F000932302C0959587956A95E2F70895833413
:1004000089F0843428F4813449F0823469F408C0D6
:10041000823631F0833631F0813631F46ABB08958B
:1004200067BB089564BB089561BB0895833489F068
:10043000843428F4813449F0823469F408C0823667
:1004400031F0833631F0813631F46BBB089568BBEF
:10045000089565BB089562BB08958334A9F0843480
:1004600028F4813449F0823499F40AC0823641F08C
:10047000833651F0813661F48BB380958BBB089540
:1004800088B3809588BB089585B3809585BB089512
:1004900082B3809582BB0895833489F0843428F434
:1004A000813449F0823469F408C0823631F08336F1
:1004B00031F0813631F489B3089586B3089583B35A
:1004C000089580B3089584E460E00E94490084E4C4
:1004D00061E00E94830284E490E060E070E041E02B
:1004E00050E00E94D70084E460E00E944D00882321
:1004F00029F484E461E00E948702F5CF84E461E09E
:100500000E948B02F0CF41E00E94DD00089541E09F
:100510000E945000089540E00E94500008950E94FB
:0E052000640108950E94A7010895F894FFCF8A
:00000001FF
